{
  "contractName": "BikeShare",
  "abi": [
    {
      "inputs": [
        {
          "internalType": "address",
          "name": "tokenAddress",
          "type": "address"
        }
      ],
      "stateMutability": "nonpayable",
      "type": "constructor"
    },
    {
      "anonymous": false,
      "inputs": [
        {
          "indexed": true,
          "internalType": "address",
          "name": "_by",
          "type": "address"
        },
        {
          "indexed": false,
          "internalType": "uint256",
          "name": "_start",
          "type": "uint256"
        }
      ],
      "name": "rentBike",
      "type": "event"
    },
    {
      "anonymous": false,
      "inputs": [
        {
          "indexed": true,
          "internalType": "address",
          "name": "_by",
          "type": "address"
        },
        {
          "indexed": false,
          "internalType": "uint256",
          "name": "stop",
          "type": "uint256"
        }
      ],
      "name": "returnBike",
      "type": "event"
    },
    {
      "anonymous": false,
      "inputs": [
        {
          "indexed": true,
          "internalType": "address",
          "name": "_from",
          "type": "address"
        },
        {
          "indexed": false,
          "internalType": "uint256",
          "name": "_value",
          "type": "uint256"
        }
      ],
      "name": "tokensBought",
      "type": "event"
    },
    {
      "inputs": [],
      "name": "BuyTokens",
      "outputs": [
        {
          "internalType": "bool",
          "name": "success",
          "type": "bool"
        }
      ],
      "stateMutability": "payable",
      "type": "function",
      "payable": true
    },
    {
      "inputs": [],
      "name": "Rent",
      "outputs": [
        {
          "internalType": "bool",
          "name": "success",
          "type": "bool"
        }
      ],
      "stateMutability": "nonpayable",
      "type": "function"
    },
    {
      "inputs": [],
      "name": "ReturnBike",
      "outputs": [
        {
          "internalType": "bool",
          "name": "success",
          "type": "bool"
        }
      ],
      "stateMutability": "nonpayable",
      "type": "function"
    },
    {
      "inputs": [],
      "name": "isBikeOwner",
      "outputs": [
        {
          "internalType": "bool",
          "name": "",
          "type": "bool"
        }
      ],
      "stateMutability": "view",
      "type": "function",
      "constant": true
    },
    {
      "inputs": [],
      "name": "BalanceChecker",
      "outputs": [
        {
          "internalType": "uint256",
          "name": "",
          "type": "uint256"
        }
      ],
      "stateMutability": "view",
      "type": "function",
      "constant": true
    },
    {
      "inputs": [],
      "name": "EscrowBalance",
      "outputs": [
        {
          "internalType": "uint256",
          "name": "",
          "type": "uint256"
        }
      ],
      "stateMutability": "view",
      "type": "function",
      "constant": true
    },
    {
      "inputs": [],
      "name": "ReturnOwner",
      "outputs": [
        {
          "internalType": "address",
          "name": "",
          "type": "address"
        }
      ],
      "stateMutability": "view",
      "type": "function",
      "constant": true
    },
    {
      "inputs": [],
      "name": "ReturnEscrowAmount",
      "outputs": [
        {
          "internalType": "uint256",
          "name": "",
          "type": "uint256"
        }
      ],
      "stateMutability": "view",
      "type": "function",
      "constant": true
    },
    {
      "inputs": [],
      "name": "ReturnAmount",
      "outputs": [
        {
          "internalType": "uint256",
          "name": "",
          "type": "uint256"
        }
      ],
      "stateMutability": "view",
      "type": "function",
      "constant": true
    },
    {
      "inputs": [],
      "name": "ReturnRenters",
      "outputs": [
        {
          "internalType": "uint256",
          "name": "",
          "type": "uint256"
        }
      ],
      "stateMutability": "view",
      "type": "function",
      "constant": true
    },
    {
      "inputs": [],
      "name": "ReturnTimesRented",
      "outputs": [
        {
          "internalType": "uint256",
          "name": "",
          "type": "uint256"
        }
      ],
      "stateMutability": "view",
      "type": "function",
      "constant": true
    },
    {
      "inputs": [
        {
          "internalType": "uint256",
          "name": "value",
          "type": "uint256"
        }
      ],
      "name": "ReturnRentRecord",
      "outputs": [
        {
          "internalType": "uint256",
          "name": "",
          "type": "uint256"
        }
      ],
      "stateMutability": "view",
      "type": "function",
      "constant": true
    }
  ],
  "bytecode": "0x6080604052611388600355613a98600455651b48eb57e0006005553480156200002757600080fd5b50604051620016483803806200164883398181016040528101906200004d91906200013f565b806000806101000a81548173ffffffffffffffffffffffffffffffffffffffff021916908373ffffffffffffffffffffffffffffffffffffffff16021790555033600860006101000a81548173ffffffffffffffffffffffffffffffffffffffff021916908373ffffffffffffffffffffffffffffffffffffffff1602179055505062000171565b600080fd5b600073ffffffffffffffffffffffffffffffffffffffff82169050919050565b60006200010782620000da565b9050919050565b6200011981620000fa565b81146200012557600080fd5b50565b60008151905062000139816200010e565b92915050565b600060208284031215620001585762000157620000d5565b5b6000620001688482850162000128565b91505092915050565b6114c780620001816000396000f3fe6080604052600436106100a75760003560e01c80637cef9674116100645780637cef9674146101ae57806390a76242146101d9578063a72ea98a14610204578063bdba681a14610241578063d81111ab1461026c578063fe4340361461028a576100a7565b8063088536b0146100ac5780631878265a146100d75780632c0c24ab146101025780636a3016c61461012d578063743c6cd0146101585780637b7ac5b014610183575b600080fd5b3480156100b857600080fd5b506100c16102b5565b6040516100ce9190610f0f565b60405180910390f35b3480156100e357600080fd5b506100ec610357565b6040516100f99190610f45565b60405180910390f35b34801561010e57600080fd5b5061011761078d565b6040516101249190610f0f565b60405180910390f35b34801561013957600080fd5b5061014261082f565b60405161014f9190610f0f565b60405180910390f35b34801561016457600080fd5b5061016d610839565b60405161017a9190610f0f565b60405180910390f35b34801561018f57600080fd5b50610198610880565b6040516101a59190610f45565b60405180910390f35b3480156101ba57600080fd5b506101c36108d4565b6040516101d09190610f0f565b60405180910390f35b3480156101e557600080fd5b506101ee6108de565b6040516101fb9190610f0f565b60405180910390f35b34801561021057600080fd5b5061022b60048036038101906102269190610f91565b6108e8565b6040516102389190610f0f565b60405180910390f35b34801561024d57600080fd5b50610256610942565b6040516102639190610f45565b60405180910390f35b610274610c79565b6040516102819190610f45565b60405180910390f35b34801561029657600080fd5b5061029f610eb1565b6040516102ac9190610fff565b60405180910390f35b60008060009054906101000a900473ffffffffffffffffffffffffffffffffffffffff1673ffffffffffffffffffffffffffffffffffffffff16632e4d59c4336040518263ffffffff1660e01b81526004016103119190610fff565b602060405180830381865afa15801561032e573d6000803e3d6000fd5b505050506040513d601f19601f82011682018060405250810190610352919061102f565b905090565b60008060008054906101000a900473ffffffffffffffffffffffffffffffffffffffff1673ffffffffffffffffffffffffffffffffffffffff16632e4d59c4336040518263ffffffff1660e01b81526004016103b39190610fff565b602060405180830381865afa1580156103d0573d6000803e3d6000fd5b505050506040513d601f19601f820116820180604052508101906103f4919061102f565b905060001515600a60003373ffffffffffffffffffffffffffffffffffffffff1673ffffffffffffffffffffffffffffffffffffffff16815260200190815260200160002060009054906101000a900460ff16151514610489576040517f08c379a0000000000000000000000000000000000000000000000000000000008152600401610480906110b9565b60405180910390fd5b6004548110156104ce576040517f08c379a00000000000000000000000000000000000000000000000000000000081526004016104c590611125565b60405180910390fd5b60008054906101000a900473ffffffffffffffffffffffffffffffffffffffff1673ffffffffffffffffffffffffffffffffffffffff1663cc16f5db336004546040518363ffffffff1660e01b815260040161052b929190611145565b6020604051808303816000875af115801561054a573d6000803e3d6000fd5b505050506040513d601f19601f8201168201806040525081019061056e919061119a565b50600454600c60003373ffffffffffffffffffffffffffffffffffffffff1673ffffffffffffffffffffffffffffffffffffffff168152602001908152602001600020546105bc91906111f6565b600c60003373ffffffffffffffffffffffffffffffffffffffff1673ffffffffffffffffffffffffffffffffffffffff1681526020019081526020016000208190555042600181905550600660008154809291906106199061124c565b9190505550600654600b60003373ffffffffffffffffffffffffffffffffffffffff1673ffffffffffffffffffffffffffffffffffffffff16815260200190815260200160002081905550600760008154809291906106779061124c565b91905055506001600a60003373ffffffffffffffffffffffffffffffffffffffff1673ffffffffffffffffffffffffffffffffffffffff16815260200190815260200160002060006101000a81548160ff0219169083151502179055506009339080600181540180825580915050600190039060005260206000200160009091909190916101000a81548173ffffffffffffffffffffffffffffffffffffffff021916908373ffffffffffffffffffffffffffffffffffffffff1602179055503373ffffffffffffffffffffffffffffffffffffffff167f497fbb8dc4a61acc68578adcdca466a11be797c4d4f094472c3e8e14b9cca32f4260405161077d9190610f0f565b60405180910390a2600191505090565b60008060009054906101000a900473ffffffffffffffffffffffffffffffffffffffff1673ffffffffffffffffffffffffffffffffffffffff16632e4d59c4306040518263ffffffff1660e01b81526004016107e99190610fff565b602060405180830381865afa158015610806573d6000803e3d6000fd5b505050506040513d601f19601f8201168201806040525081019061082a919061102f565b905090565b6000600354905090565b6000600b60003373ffffffffffffffffffffffffffffffffffffffff1673ffffffffffffffffffffffffffffffffffffffff16815260200190815260200160002054905090565b6000600a60003373ffffffffffffffffffffffffffffffffffffffff1673ffffffffffffffffffffffffffffffffffffffff16815260200190815260200160002060009054906101000a900460ff16905090565b6000600454905090565b6000600754905090565b6000600d600083815260200190815260200160002060003373ffffffffffffffffffffffffffffffffffffffff1673ffffffffffffffffffffffffffffffffffffffff168152602001908152602001600020549050919050565b600060011515600a60003373ffffffffffffffffffffffffffffffffffffffff1673ffffffffffffffffffffffffffffffffffffffff16815260200190815260200160002060009054906101000a900460ff161515146109d7576040517f08c379a00000000000000000000000000000000000000000000000000000000081526004016109ce906112e1565b60405180910390fd5b4260028190555060006001546002546109f09190611301565b905060008054906101000a900473ffffffffffffffffffffffffffffffffffffffff1673ffffffffffffffffffffffffffffffffffffffff16630f6798a533600c60003373ffffffffffffffffffffffffffffffffffffffff1673ffffffffffffffffffffffffffffffffffffffff168152602001908152602001600020546040518363ffffffff1660e01b8152600401610a8c929190611145565b6020604051808303816000875af1158015610aab573d6000803e3d6000fd5b505050506040513d601f19601f82011682018060405250810190610acf919061119a565b5060076000815480929190610ae390611335565b91905055506000600a60003373ffffffffffffffffffffffffffffffffffffffff1673ffffffffffffffffffffffffffffffffffffffff16815260200190815260200160002060006101000a81548160ff02191690831515021790555080600d6000600654815260200190815260200160002060003373ffffffffffffffffffffffffffffffffffffffff1673ffffffffffffffffffffffffffffffffffffffff168152602001908152602001600020819055506000600c60003373ffffffffffffffffffffffffffffffffffffffff1673ffffffffffffffffffffffffffffffffffffffff168152602001908152602001600020819055506009805480610bee57610bed61135f565b5b6001900381819060005260206000200160006101000a81549073ffffffffffffffffffffffffffffffffffffffff021916905590553373ffffffffffffffffffffffffffffffffffffffff167f323aba6159243b21d7710de54ee64be91de8c20ee928f5ea9b3bf806f3c88f9742604051610c699190610f0f565b60405180910390a2600191505090565b600080610c9160055434610edb90919063ffffffff16565b905060008060009054906101000a900473ffffffffffffffffffffffffffffffffffffffff1673ffffffffffffffffffffffffffffffffffffffff16632e4d59c4306040518263ffffffff1660e01b8152600401610cef9190610fff565b602060405180830381865afa158015610d0c573d6000803e3d6000fd5b505050506040513d601f19601f82011682018060405250810190610d30919061102f565b90506000341415610d76576040517f08c379a0000000000000000000000000000000000000000000000000000000008152600401610d6d906113da565b60405180910390fd5b81811015610db9576040517f08c379a0000000000000000000000000000000000000000000000000000000008152600401610db090611125565b60405180910390fd5b60008054906101000a900473ffffffffffffffffffffffffffffffffffffffff1673ffffffffffffffffffffffffffffffffffffffff1663c0d84ce53033856040518463ffffffff1660e01b8152600401610e16939291906113fa565b6020604051808303816000875af1158015610e35573d6000803e3d6000fd5b505050506040513d601f19601f82011682018060405250810190610e59919061119a565b503373ffffffffffffffffffffffffffffffffffffffff167f6ebf55d0cee4245affe84127b666e1c5c6614cce8e0de4290cc3210d2b83b63083604051610ea09190610f0f565b60405180910390a260019250505090565b6000600860009054906101000a900473ffffffffffffffffffffffffffffffffffffffff16905090565b6000808284610eea9190611460565b90508091505092915050565b6000819050919050565b610f0981610ef6565b82525050565b6000602082019050610f246000830184610f00565b92915050565b60008115159050919050565b610f3f81610f2a565b82525050565b6000602082019050610f5a6000830184610f36565b92915050565b600080fd5b610f6e81610ef6565b8114610f7957600080fd5b50565b600081359050610f8b81610f65565b92915050565b600060208284031215610fa757610fa6610f60565b5b6000610fb584828501610f7c565b91505092915050565b600073ffffffffffffffffffffffffffffffffffffffff82169050919050565b6000610fe982610fbe565b9050919050565b610ff981610fde565b82525050565b60006020820190506110146000830184610ff0565b92915050565b60008151905061102981610f65565b92915050565b60006020828403121561104557611044610f60565b5b60006110538482850161101a565b91505092915050565b600082825260208201905092915050565b7f596f7520686176652072656e74656420612062696b6520616c72656164790000600082015250565b60006110a3601e8361105c565b91506110ae8261106d565b602082019050919050565b600060208201905081810360008301526110d281611096565b9050919050565b7f496e73756666696369656e742042616c616e6365000000000000000000000000600082015250565b600061110f60148361105c565b915061111a826110d9565b602082019050919050565b6000602082019050818103600083015261113e81611102565b9050919050565b600060408201905061115a6000830185610ff0565b6111676020830184610f00565b9392505050565b61117781610f2a565b811461118257600080fd5b50565b6000815190506111948161116e565b92915050565b6000602082840312156111b0576111af610f60565b5b60006111be84828501611185565b91505092915050565b7f4e487b7100000000000000000000000000000000000000000000000000000000600052601160045260246000fd5b600061120182610ef6565b915061120c83610ef6565b9250827fffffffffffffffffffffffffffffffffffffffffffffffffffffffffffffffff03821115611241576112406111c7565b5b828201905092915050565b600061125782610ef6565b91507fffffffffffffffffffffffffffffffffffffffffffffffffffffffffffffffff82141561128a576112896111c7565b5b600182019050919050565b7f596f75206d7573742072656e7420612062696b65000000000000000000000000600082015250565b60006112cb60148361105c565b91506112d682611295565b602082019050919050565b600060208201905081810360008301526112fa816112be565b9050919050565b600061130c82610ef6565b915061131783610ef6565b92508282101561132a576113296111c7565b5b828203905092915050565b600061134082610ef6565b91506000821415611354576113536111c7565b5b600182039050919050565b7f4e487b7100000000000000000000000000000000000000000000000000000000600052603160045260246000fd5b7f596f752063616e6e6f742073656e64206e6f7468696e67000000000000000000600082015250565b60006113c460178361105c565b91506113cf8261138e565b602082019050919050565b600060208201905081810360008301526113f3816113b7565b9050919050565b600060608201905061140f6000830186610ff0565b61141c6020830185610ff0565b6114296040830184610f00565b949350505050565b7f4e487b7100000000000000000000000000000000000000000000000000000000600052601260045260246000fd5b600061146b82610ef6565b915061147683610ef6565b92508261148657611485611431565b5b82820490509291505056fea2646970667358221220d72674681ef0dac7c9f8ba95371c8242de7add29476e90ac4e408105f7c023ca64736f6c634300080b0033",
  "immutableReferences": {},
  "source": "pragma solidity ^0.8.11;\r\nimport \"./OGGToken.sol\";\r\ncontract BikeShare{\r\n    using SafeMath for uint;\r\n    OGG myogg;\r\n    \r\n    uint private start;\r\n    uint private end;\r\n    uint private amount = 5000;\r\n    uint private EscrowAmount = 15000;\r\n    uint private buyRate = 30000000000000;\r\n    uint private rentCounter;\r\n    uint private id;\r\n\r\n    address private owner;\r\n    address[]Renters;\r\n\r\n\r\n    mapping(address => bool)isRented;\r\n    mapping(address => uint)RentedTimes;\r\n    mapping(address => uint)Payments;\r\n    mapping(uint => mapping(address => uint))Record;\r\n   \r\n        constructor(address tokenAddress){\r\n        myogg = OGG(tokenAddress);\r\n        owner = msg.sender;\r\n    }\r\n        \r\n    \r\n    event tokensBought(address indexed _from,uint _value);\r\n    event rentBike(address indexed _by,uint _start);\r\n    event returnBike(address indexed _by,uint stop);\r\n\r\n    function BuyTokens()external payable returns(bool success){\r\n        uint bought = msg.value.div(buyRate);\r\n        uint VendorBalance = myogg.CheckBalance(address(this)); \r\n        require(msg.value != 0,\"You cannot send nothing\");\r\n        require(VendorBalance >= bought,\"Insufficient Balance\");\r\n        myogg.TransferFrom(address(this),msg.sender,bought);\r\n        emit tokensBought(msg.sender,bought);\r\n        return true;\r\n    }\r\n\r\n\r\n\r\n    function Rent()public returns(bool success){\r\n        uint user = myogg.CheckBalance(msg.sender);\r\n        require(isRented[msg.sender] == false ,\"You have rented a bike already\");\r\n        require(user >= EscrowAmount,\"Insufficient Balance\");\r\n        myogg.Burn(msg.sender,EscrowAmount);\r\n        Payments[msg.sender] = Payments[msg.sender] + EscrowAmount;\r\n        start = block.timestamp;\r\n        rentCounter++;\r\n        RentedTimes[msg.sender] = rentCounter;\r\n        id++;\r\n        isRented[msg.sender] = true;\r\n        Renters.push(msg.sender);\r\n        emit rentBike(msg.sender,block.timestamp);\r\n        return true;\r\n    }\r\n\r\n\r\n    function ReturnBike()public returns(bool success){\r\n        require(isRented[msg.sender] == true ,\"You must rent a bike\");\r\n      end = block.timestamp;\r\n      uint duration = end - start;\r\n      myogg.Mint(msg.sender,(Payments[msg.sender]));\r\n      id--;\r\n      isRented[msg.sender] = false;\r\n      Record[rentCounter][msg.sender] = duration;\r\n      Payments[msg.sender] = 0;\r\n      Renters.pop();\r\n      emit returnBike(msg.sender,block.timestamp);\r\n      return true;\r\n    }\r\n\r\n    function isBikeOwner()public view returns(bool){\r\n        return isRented[msg.sender];\r\n    }\r\n\r\n\r\n    function BalanceChecker()public view returns(uint){\r\n        return myogg.CheckBalance(msg.sender);\r\n    }\r\n\r\n\r\n    function EscrowBalance()public view returns(uint){\r\n        return myogg.CheckBalance(address(this));\r\n    }\r\n\r\n\r\n    function ReturnOwner()public view returns(address){\r\n        return owner;\r\n    }\r\n\r\n\r\n    function ReturnEscrowAmount()public view returns(uint){\r\n        return EscrowAmount;\r\n    }\r\n\r\n\r\n    function ReturnAmount()public view returns(uint){\r\n        return amount;\r\n    }\r\n\r\n\r\n    function ReturnRenters()public view returns(uint){\r\n        return id;\r\n    }\r\n\r\n\r\n    function ReturnTimesRented()public view returns(uint){\r\n        return RentedTimes[msg.sender];\r\n    }\r\n\r\n\r\n    function ReturnRentRecord(uint value)public view returns(uint){\r\n        return Record[value][msg.sender];\r\n    }\r\n\r\n}",
  "sourcePath": "C:\\Users\\MAYOWA\\Desktop\\BikeSharing\\contracts\\BikeSharing.sol",
  "compiler": {
    "name": "solc",
    "version": "0.8.11+commit.d7f03943.Emscripten.clang"
  },
  "schemaVersion": "3.4.5",
  "updatedAt": "2022-07-09T09:56:42.622Z",
  "networkType": "ethereum",
  "devdoc": {
    "kind": "dev",
    "methods": {},
    "version": 1
  },
  "userdoc": {
    "kind": "user",
    "methods": {},
    "version": 1
  }
}