{
  "contractName": "MayoralToken",
  "abi": [
    {
      "inputs": [
        {
          "internalType": "string",
          "name": "_name",
          "type": "string"
        },
        {
          "internalType": "string",
          "name": "_symbol",
          "type": "string"
        },
        {
          "internalType": "uint8",
          "name": "_decimal",
          "type": "uint8"
        }
      ],
      "stateMutability": "nonpayable",
      "type": "constructor"
    },
    {
      "anonymous": false,
      "inputs": [
        {
          "indexed": true,
          "internalType": "address",
          "name": "_from",
          "type": "address"
        }
      ],
      "name": "PAUSE",
      "type": "event"
    },
    {
      "anonymous": false,
      "inputs": [
        {
          "indexed": true,
          "internalType": "address",
          "name": "_from",
          "type": "address"
        }
      ],
      "name": "UNPAUSE",
      "type": "event"
    },
    {
      "anonymous": false,
      "inputs": [
        {
          "indexed": true,
          "internalType": "address",
          "name": "_from",
          "type": "address"
        },
        {
          "indexed": true,
          "internalType": "address",
          "name": "_to",
          "type": "address"
        },
        {
          "indexed": false,
          "internalType": "uint256",
          "name": "_value",
          "type": "uint256"
        }
      ],
      "name": "approve",
      "type": "event"
    },
    {
      "anonymous": false,
      "inputs": [
        {
          "indexed": true,
          "internalType": "address",
          "name": "_from",
          "type": "address"
        },
        {
          "indexed": false,
          "internalType": "uint256",
          "name": "_value",
          "type": "uint256"
        }
      ],
      "name": "burn",
      "type": "event"
    },
    {
      "anonymous": false,
      "inputs": [
        {
          "indexed": true,
          "internalType": "address",
          "name": "_from",
          "type": "address"
        },
        {
          "indexed": true,
          "internalType": "address",
          "name": "_to",
          "type": "address"
        }
      ],
      "name": "changeownership",
      "type": "event"
    },
    {
      "anonymous": false,
      "inputs": [
        {
          "indexed": true,
          "internalType": "address",
          "name": "_from",
          "type": "address"
        },
        {
          "indexed": true,
          "internalType": "address",
          "name": "_to",
          "type": "address"
        },
        {
          "indexed": false,
          "internalType": "uint256",
          "name": "_value",
          "type": "uint256"
        }
      ],
      "name": "decreasedallowance",
      "type": "event"
    },
    {
      "anonymous": false,
      "inputs": [
        {
          "indexed": true,
          "internalType": "address",
          "name": "_from",
          "type": "address"
        },
        {
          "indexed": true,
          "internalType": "address",
          "name": "_to",
          "type": "address"
        },
        {
          "indexed": false,
          "internalType": "uint256",
          "name": "_value",
          "type": "uint256"
        }
      ],
      "name": "increasedallowance",
      "type": "event"
    },
    {
      "anonymous": false,
      "inputs": [
        {
          "indexed": true,
          "internalType": "address",
          "name": "_from",
          "type": "address"
        },
        {
          "indexed": false,
          "internalType": "uint256",
          "name": "_value",
          "type": "uint256"
        }
      ],
      "name": "mint",
      "type": "event"
    },
    {
      "anonymous": false,
      "inputs": [
        {
          "indexed": true,
          "internalType": "address",
          "name": "_to",
          "type": "address"
        }
      ],
      "name": "renounceownership",
      "type": "event"
    },
    {
      "anonymous": false,
      "inputs": [
        {
          "indexed": true,
          "internalType": "address",
          "name": "_from",
          "type": "address"
        },
        {
          "indexed": true,
          "internalType": "address",
          "name": "_to",
          "type": "address"
        },
        {
          "indexed": false,
          "internalType": "uint256",
          "name": "_value",
          "type": "uint256"
        }
      ],
      "name": "transfer",
      "type": "event"
    },
    {
      "anonymous": false,
      "inputs": [
        {
          "indexed": true,
          "internalType": "address",
          "name": "_to",
          "type": "address"
        },
        {
          "indexed": false,
          "internalType": "uint256",
          "name": "_value",
          "type": "uint256"
        }
      ],
      "name": "withdraw",
      "type": "event"
    },
    {
      "inputs": [],
      "name": "ShowOwner",
      "outputs": [
        {
          "internalType": "address",
          "name": "",
          "type": "address"
        }
      ],
      "stateMutability": "view",
      "type": "function"
    },
    {
      "inputs": [],
      "name": "ReturnName",
      "outputs": [
        {
          "internalType": "string",
          "name": "",
          "type": "string"
        }
      ],
      "stateMutability": "view",
      "type": "function"
    },
    {
      "inputs": [],
      "name": "ReturnSymbol",
      "outputs": [
        {
          "internalType": "string",
          "name": "",
          "type": "string"
        }
      ],
      "stateMutability": "view",
      "type": "function"
    },
    {
      "inputs": [],
      "name": "ReturnDecimal",
      "outputs": [
        {
          "internalType": "uint256",
          "name": "",
          "type": "uint256"
        }
      ],
      "stateMutability": "view",
      "type": "function"
    },
    {
      "inputs": [],
      "name": "ShowTotalSupply",
      "outputs": [
        {
          "internalType": "uint256",
          "name": "",
          "type": "uint256"
        }
      ],
      "stateMutability": "view",
      "type": "function"
    },
    {
      "inputs": [
        {
          "internalType": "address",
          "name": "_recieve",
          "type": "address"
        },
        {
          "internalType": "uint256",
          "name": "_value",
          "type": "uint256"
        }
      ],
      "name": "SetAllowance",
      "outputs": [
        {
          "internalType": "bool",
          "name": "success",
          "type": "bool"
        }
      ],
      "stateMutability": "nonpayable",
      "type": "function"
    },
    {
      "inputs": [
        {
          "internalType": "address",
          "name": "_recieve",
          "type": "address"
        },
        {
          "internalType": "uint256",
          "name": "_value",
          "type": "uint256"
        }
      ],
      "name": "IncreaseAllowance",
      "outputs": [
        {
          "internalType": "bool",
          "name": "success",
          "type": "bool"
        }
      ],
      "stateMutability": "nonpayable",
      "type": "function"
    },
    {
      "inputs": [
        {
          "internalType": "address",
          "name": "_recieve",
          "type": "address"
        },
        {
          "internalType": "uint256",
          "name": "_value",
          "type": "uint256"
        }
      ],
      "name": "DecreaseAllowance",
      "outputs": [
        {
          "internalType": "bool",
          "name": "success",
          "type": "bool"
        }
      ],
      "stateMutability": "nonpayable",
      "type": "function"
    },
    {
      "inputs": [
        {
          "internalType": "address",
          "name": "_to",
          "type": "address"
        },
        {
          "internalType": "uint256",
          "name": "_value",
          "type": "uint256"
        }
      ],
      "name": "_Transfer",
      "outputs": [
        {
          "internalType": "bool",
          "name": "success",
          "type": "bool"
        }
      ],
      "stateMutability": "nonpayable",
      "type": "function"
    },
    {
      "inputs": [
        {
          "internalType": "address",
          "name": "_from",
          "type": "address"
        },
        {
          "internalType": "address",
          "name": "_to",
          "type": "address"
        },
        {
          "internalType": "uint256",
          "name": "_value",
          "type": "uint256"
        }
      ],
      "name": "TransferFrom",
      "outputs": [
        {
          "internalType": "bool",
          "name": "success",
          "type": "bool"
        }
      ],
      "stateMutability": "nonpayable",
      "type": "function"
    },
    {
      "inputs": [
        {
          "internalType": "address",
          "name": "_who",
          "type": "address"
        }
      ],
      "name": "CheckBalance",
      "outputs": [
        {
          "internalType": "uint256",
          "name": "",
          "type": "uint256"
        }
      ],
      "stateMutability": "view",
      "type": "function"
    },
    {
      "inputs": [
        {
          "internalType": "address",
          "name": "_from",
          "type": "address"
        },
        {
          "internalType": "uint256",
          "name": "_value",
          "type": "uint256"
        }
      ],
      "name": "Mint",
      "outputs": [
        {
          "internalType": "bool",
          "name": "success",
          "type": "bool"
        }
      ],
      "stateMutability": "nonpayable",
      "type": "function"
    },
    {
      "inputs": [
        {
          "internalType": "address",
          "name": "_from",
          "type": "address"
        },
        {
          "internalType": "uint256",
          "name": "_value",
          "type": "uint256"
        }
      ],
      "name": "Burn",
      "outputs": [
        {
          "internalType": "bool",
          "name": "success",
          "type": "bool"
        }
      ],
      "stateMutability": "nonpayable",
      "type": "function"
    },
    {
      "inputs": [
        {
          "internalType": "address payable",
          "name": "_to",
          "type": "address"
        },
        {
          "internalType": "uint256",
          "name": "_value",
          "type": "uint256"
        }
      ],
      "name": "Withdraw",
      "outputs": [
        {
          "internalType": "bool",
          "name": "success",
          "type": "bool"
        }
      ],
      "stateMutability": "nonpayable",
      "type": "function"
    },
    {
      "inputs": [
        {
          "internalType": "address",
          "name": "_to",
          "type": "address"
        }
      ],
      "name": "Renounce",
      "outputs": [
        {
          "internalType": "bool",
          "name": "success",
          "type": "bool"
        }
      ],
      "stateMutability": "nonpayable",
      "type": "function"
    },
    {
      "inputs": [
        {
          "internalType": "address",
          "name": "_to",
          "type": "address"
        }
      ],
      "name": "ChangeOwnership",
      "outputs": [
        {
          "internalType": "bool",
          "name": "success",
          "type": "bool"
        }
      ],
      "stateMutability": "nonpayable",
      "type": "function"
    },
    {
      "inputs": [
        {
          "internalType": "address",
          "name": "_to",
          "type": "address"
        }
      ],
      "name": "CheckAllowance",
      "outputs": [
        {
          "internalType": "uint256",
          "name": "",
          "type": "uint256"
        }
      ],
      "stateMutability": "view",
      "type": "function"
    }
  ],
  "bytecode": "0x60806040523480156200001157600080fd5b5060405162002731380380620027318339818101604052810190620000379190620003ef565b82600290805190602001906200004f92919062000164565b5081600390805190602001906200006892919062000164565b5080600460006101000a81548160ff021916908360ff16021790555032600160006101000a81548173ffffffffffffffffffffffffffffffffffffffff021916908373ffffffffffffffffffffffffffffffffffffffff16021790555060005460056000600160009054906101000a900473ffffffffffffffffffffffffffffffffffffffff1673ffffffffffffffffffffffffffffffffffffffff1673ffffffffffffffffffffffffffffffffffffffff168152602001908152602001600020819055506001600760006101000a81548160ff0219169083600181111562000156576200015562000489565b5b02179055505050506200051d565b8280546200017290620004e7565b90600052602060002090601f016020900481019282620001965760008555620001e2565b82601f10620001b157805160ff1916838001178555620001e2565b82800160010185558215620001e2579182015b82811115620001e1578251825591602001919060010190620001c4565b5b509050620001f19190620001f5565b5090565b5b8082111562000210576000816000905550600101620001f6565b5090565b6000604051905090565b600080fd5b600080fd5b600080fd5b600080fd5b6000601f19601f8301169050919050565b7f4e487b7100000000000000000000000000000000000000000000000000000000600052604160045260246000fd5b6200027d8262000232565b810181811067ffffffffffffffff821117156200029f576200029e62000243565b5b80604052505050565b6000620002b462000214565b9050620002c2828262000272565b919050565b600067ffffffffffffffff821115620002e557620002e462000243565b5b620002f08262000232565b9050602081019050919050565b60005b838110156200031d57808201518184015260208101905062000300565b838111156200032d576000848401525b50505050565b60006200034a6200034484620002c7565b620002a8565b9050828152602081018484840111156200036957620003686200022d565b5b62000376848285620002fd565b509392505050565b600082601f83011262000396576200039562000228565b5b8151620003a884826020860162000333565b91505092915050565b600060ff82169050919050565b620003c981620003b1565b8114620003d557600080fd5b50565b600081519050620003e981620003be565b92915050565b6000806000606084860312156200040b576200040a6200021e565b5b600084015167ffffffffffffffff8111156200042c576200042b62000223565b5b6200043a868287016200037e565b935050602084015167ffffffffffffffff8111156200045e576200045d62000223565b5b6200046c868287016200037e565b92505060406200047f86828701620003d8565b9150509250925092565b7f4e487b7100000000000000000000000000000000000000000000000000000000600052602160045260246000fd5b7f4e487b7100000000000000000000000000000000000000000000000000000000600052602260045260246000fd5b600060028204905060018216806200050057607f821691505b60208210811415620005175762000516620004b8565b5b50919050565b612204806200052d6000396000f3fe608060405234801561001057600080fd5b506004361061010b5760003560e01c806383995b9a116100a2578063ad1bef1e11610071578063ad1bef1e1461031a578063c0d84ce514610338578063c5f1404b14610368578063cc16f5db14610398578063dafb0d22146103c85761010b565b806383995b9a1461027e578063884edad9146102ae57806396ce267a146102de5780639d2e2422146102fc5761010b565b8063244ded7a116100de578063244ded7a146101be5780632e4d59c4146101ee5780633e7279a31461021e5780637215b96d1461024e5761010b565b80630bf4532c146101105780630e7f2be71461012e5780630f6798a51461015e5780631963a6931461018e575b600080fd5b6101186103e6565b6040516101259190611a8e565b60405180910390f35b61014860048036038101906101439190611b38565b610400565b6040516101559190611b93565b60405180910390f35b61017860048036038101906101739190611b38565b6105db565b6040516101859190611b93565b60405180910390f35b6101a860048036038101906101a39190611b38565b610784565b6040516101b59190611b93565b60405180910390f35b6101d860048036038101906101d39190611bae565b6109e0565b6040516101e59190611b93565b60405180910390f35b61020860048036038101906102039190611bae565b610bf5565b6040516102159190611a8e565b60405180910390f35b61023860048036038101906102339190611b38565b610c3e565b6040516102459190611b93565b60405180910390f35b61026860048036038101906102639190611bae565b610e0d565b6040516102759190611a8e565b60405180910390f35b61029860048036038101906102939190611bae565b610eb5565b6040516102a59190611b93565b60405180910390f35b6102c860048036038101906102c39190611c19565b611044565b6040516102d59190611b93565b60405180910390f35b6102e6611182565b6040516102f39190611c68565b60405180910390f35b6103046111ac565b6040516103119190611d1c565b60405180910390f35b61032261123e565b60405161032f9190611d1c565b60405180910390f35b610352600480360381019061034d9190611d3e565b6112d0565b60405161035f9190611b93565b60405180910390f35b610382600480360381019061037d9190611b38565b61157f565b60405161038f9190611b93565b60405180910390f35b6103b260048036038101906103ad9190611b38565b611597565b6040516103bf9190611b93565b60405180910390f35b6103d061176a565b6040516103dd9190611a8e565b60405180910390f35b6000600460009054906101000a900460ff1660ff16905090565b600060011515600460019054906101000a900460ff161515141561042357600080fd5b600073ffffffffffffffffffffffffffffffffffffffff168373ffffffffffffffffffffffffffffffffffffffff16141561045d57600080fd5b6104ec82600660003373ffffffffffffffffffffffffffffffffffffffff1673ffffffffffffffffffffffffffffffffffffffff16815260200190815260200160002060008673ffffffffffffffffffffffffffffffffffffffff1673ffffffffffffffffffffffffffffffffffffffff1681526020019081526020016000205461177390919063ffffffff16565b600660003373ffffffffffffffffffffffffffffffffffffffff1673ffffffffffffffffffffffffffffffffffffffff16815260200190815260200160002060008573ffffffffffffffffffffffffffffffffffffffff1673ffffffffffffffffffffffffffffffffffffffff168152602001908152602001600020819055508273ffffffffffffffffffffffffffffffffffffffff163373ffffffffffffffffffffffffffffffffffffffff167fbcbc2f27353563a7798372a0dfb7f4fc97a4424532d94ac5727c2b6d8445ba11846040516105c99190611a8e565b60405180910390a36001905092915050565b600060011515600460019054906101000a900460ff16151514156105fe57600080fd5b600073ffffffffffffffffffffffffffffffffffffffff168373ffffffffffffffffffffffffffffffffffffffff16141561063857600080fd5b600082141561067c576040517f08c379a000000000000000000000000000000000000000000000000000000000815260040161067390611ddd565b60405180910390fd5b6106918260005461179a90919063ffffffff16565b6000819055506106e982600560008673ffffffffffffffffffffffffffffffffffffffff1673ffffffffffffffffffffffffffffffffffffffff1681526020019081526020016000205461179a90919063ffffffff16565b600560008573ffffffffffffffffffffffffffffffffffffffff1673ffffffffffffffffffffffffffffffffffffffff168152602001908152602001600020819055508273ffffffffffffffffffffffffffffffffffffffff167f40c10f19c047ae7dfa66d6312b683d2ea3dfbcb4159e96b967c5f4b0a86f2842836040516107729190611a8e565b60405180910390a26001905092915050565b600060011515600460019054906101000a900460ff16151514156107a757600080fd5b600073ffffffffffffffffffffffffffffffffffffffff168373ffffffffffffffffffffffffffffffffffffffff1614156107e157600080fd5b81600560003373ffffffffffffffffffffffffffffffffffffffff1673ffffffffffffffffffffffffffffffffffffffff1681526020019081526020016000205411610862576040517f08c379a000000000000000000000000000000000000000000000000000000000815260040161085990611e49565b60405180910390fd5b6108f182600660003373ffffffffffffffffffffffffffffffffffffffff1673ffffffffffffffffffffffffffffffffffffffff16815260200190815260200160002060008673ffffffffffffffffffffffffffffffffffffffff1673ffffffffffffffffffffffffffffffffffffffff1681526020019081526020016000205461179a90919063ffffffff16565b600660003373ffffffffffffffffffffffffffffffffffffffff1673ffffffffffffffffffffffffffffffffffffffff16815260200190815260200160002060008573ffffffffffffffffffffffffffffffffffffffff1673ffffffffffffffffffffffffffffffffffffffff168152602001908152602001600020819055508273ffffffffffffffffffffffffffffffffffffffff163373ffffffffffffffffffffffffffffffffffffffff167fe43a4c0c8b584625b0f915e64cd33950433cbbc5e42b3335ca72d313be300aec846040516109ce9190611a8e565b60405180910390a36001905092915050565b6000600160009054906101000a900473ffffffffffffffffffffffffffffffffffffffff1673ffffffffffffffffffffffffffffffffffffffff163373ffffffffffffffffffffffffffffffffffffffff1614610a72576040517f08c379a0000000000000000000000000000000000000000000000000000000008152600401610a6990611eb5565b60405180910390fd5b3373ffffffffffffffffffffffffffffffffffffffff168273ffffffffffffffffffffffffffffffffffffffff161415610ae1576040517f08c379a0000000000000000000000000000000000000000000000000000000008152600401610ad890611f21565b60405180910390fd5b600073ffffffffffffffffffffffffffffffffffffffff168273ffffffffffffffffffffffffffffffffffffffff161415610b51576040517f08c379a0000000000000000000000000000000000000000000000000000000008152600401610b4890611f8d565b60405180910390fd5b81600160006101000a81548173ffffffffffffffffffffffffffffffffffffffff021916908373ffffffffffffffffffffffffffffffffffffffff1602179055508173ffffffffffffffffffffffffffffffffffffffff163373ffffffffffffffffffffffffffffffffffffffff167ff7380940f2abdb5be57d91da9a02dabcdf7145bc68d8a7afc70175013c0d526d60405160405180910390a360019050919050565b6000600560008373ffffffffffffffffffffffffffffffffffffffff1673ffffffffffffffffffffffffffffffffffffffff168152602001908152602001600020549050919050565b600060011515600460019054906101000a900460ff1615151415610c6157600080fd5b81600560003373ffffffffffffffffffffffffffffffffffffffff1673ffffffffffffffffffffffffffffffffffffffff168152602001908152602001600020541015610ce3576040517f08c379a0000000000000000000000000000000000000000000000000000000008152600401610cda90611e49565b60405180910390fd5b600073ffffffffffffffffffffffffffffffffffffffff168373ffffffffffffffffffffffffffffffffffffffff161415610d1d57600080fd5b81600660003373ffffffffffffffffffffffffffffffffffffffff1673ffffffffffffffffffffffffffffffffffffffff16815260200190815260200160002060008573ffffffffffffffffffffffffffffffffffffffff1673ffffffffffffffffffffffffffffffffffffffff168152602001908152602001600020819055508273ffffffffffffffffffffffffffffffffffffffff163373ffffffffffffffffffffffffffffffffffffffff167fe1f21c67180317619fcafa578cb44275002011f9ad81f61220c62be2c441533684604051610dfb9190611a8e565b60405180910390a36001905092915050565b600060066000600160009054906101000a900473ffffffffffffffffffffffffffffffffffffffff1673ffffffffffffffffffffffffffffffffffffffff1673ffffffffffffffffffffffffffffffffffffffff16815260200190815260200160002060008373ffffffffffffffffffffffffffffffffffffffff1673ffffffffffffffffffffffffffffffffffffffff168152602001908152602001600020549050919050565b6000600160009054906101000a900473ffffffffffffffffffffffffffffffffffffffff1673ffffffffffffffffffffffffffffffffffffffff163373ffffffffffffffffffffffffffffffffffffffff1614610f47576040517f08c379a0000000000000000000000000000000000000000000000000000000008152600401610f3e90611eb5565b60405180910390fd5b600073ffffffffffffffffffffffffffffffffffffffff168273ffffffffffffffffffffffffffffffffffffffff161415610fb7576040517f08c379a0000000000000000000000000000000000000000000000000000000008152600401610fae90611f8d565b60405180910390fd5b81600160006101000a81548173ffffffffffffffffffffffffffffffffffffffff021916908373ffffffffffffffffffffffffffffffffffffffff1602179055508173ffffffffffffffffffffffffffffffffffffffff167f11bd3ae03dffc45908a76d712d26ce2ed3389fd9a74b3e1468fcaa88557fb37360405160405180910390a260019050919050565b6000600160009054906101000a900473ffffffffffffffffffffffffffffffffffffffff1673ffffffffffffffffffffffffffffffffffffffff163373ffffffffffffffffffffffffffffffffffffffff16146110d6576040517f08c379a00000000000000000000000000000000000000000000000000000000081526004016110cd90611eb5565b60405180910390fd5b478211156110e357600080fd5b8273ffffffffffffffffffffffffffffffffffffffff166108fc839081150290604051600060405180830381858888f19350505050158015611129573d6000803e3d6000fd5b508273ffffffffffffffffffffffffffffffffffffffff167ff3fef3a3f44f9c277339b67d54f015748bd8d6b77a985b0ab6e71126b018c34a836040516111709190611a8e565b60405180910390a26001905092915050565b6000600160009054906101000a900473ffffffffffffffffffffffffffffffffffffffff16905090565b6060600380546111bb90611fdc565b80601f01602080910402602001604051908101604052809291908181526020018280546111e790611fdc565b80156112345780601f1061120957610100808354040283529160200191611234565b820191906000526020600020905b81548152906001019060200180831161121757829003601f168201915b5050505050905090565b60606002805461124d90611fdc565b80601f016020809104026020016040519081016040528092919081815260200182805461127990611fdc565b80156112c65780601f1061129b576101008083540402835291602001916112c6565b820191906000526020600020905b8154815290600101906020018083116112a957829003601f168201915b5050505050905090565b600060011515600460019054906101000a900460ff16151514156112f357600080fd5b81600560008673ffffffffffffffffffffffffffffffffffffffff1673ffffffffffffffffffffffffffffffffffffffff168152602001908152602001600020541015611375576040517f08c379a000000000000000000000000000000000000000000000000000000000815260040161136c90611e49565b60405180910390fd5b600073ffffffffffffffffffffffffffffffffffffffff168373ffffffffffffffffffffffffffffffffffffffff1614156113e5576040517f08c379a00000000000000000000000000000000000000000000000000000000081526004016113dc9061205a565b60405180910390fd5b61143782600560008773ffffffffffffffffffffffffffffffffffffffff1673ffffffffffffffffffffffffffffffffffffffff1681526020019081526020016000205461177390919063ffffffff16565b600560008673ffffffffffffffffffffffffffffffffffffffff1673ffffffffffffffffffffffffffffffffffffffff168152602001908152602001600020819055506114cc82600560008673ffffffffffffffffffffffffffffffffffffffff1673ffffffffffffffffffffffffffffffffffffffff1681526020019081526020016000205461179a90919063ffffffff16565b600560008573ffffffffffffffffffffffffffffffffffffffff1673ffffffffffffffffffffffffffffffffffffffff168152602001908152602001600020819055508273ffffffffffffffffffffffffffffffffffffffff168473ffffffffffffffffffffffffffffffffffffffff167fbeabacc8ffedac16e9a60acdb2ca743d80c2ebb44977a93fa8e483c74d2b35a88460405161156c9190611a8e565b60405180910390a3600190509392505050565b600061158c3384846117c6565b506001905092915050565b600060011515600460019054906101000a900460ff16151514156115ba57600080fd5b600073ffffffffffffffffffffffffffffffffffffffff168373ffffffffffffffffffffffffffffffffffffffff1614156115f457600080fd5b6000821415611638576040517f08c379a000000000000000000000000000000000000000000000000000000000815260040161162f90611ddd565b60405180910390fd5b60005482111561167d576040517f08c379a0000000000000000000000000000000000000000000000000000000008152600401611674906120c6565b60405180910390fd5b6116cf82600560008673ffffffffffffffffffffffffffffffffffffffff1673ffffffffffffffffffffffffffffffffffffffff1681526020019081526020016000205461177390919063ffffffff16565b600560008573ffffffffffffffffffffffffffffffffffffffff1673ffffffffffffffffffffffffffffffffffffffff168152602001908152602001600020819055508273ffffffffffffffffffffffffffffffffffffffff167f9dc29fac0ba6d4fc521c69c2b0c636d612e3343bc39ed934429b8876b0d12cba836040516117589190611a8e565b60405180910390a26001905092915050565b60008054905090565b600082821115611786576117856120e6565b5b81836117929190612144565b905092915050565b60008082846117a99190612178565b9050838110156117bc576117bb6120e6565b5b8091505092915050565b600060011515600460019054906101000a900460ff16151514156117e957600080fd5b81600560008673ffffffffffffffffffffffffffffffffffffffff1673ffffffffffffffffffffffffffffffffffffffff16815260200190815260200160002054101561186b576040517f08c379a000000000000000000000000000000000000000000000000000000000815260040161186290611e49565b60405180910390fd5b600073ffffffffffffffffffffffffffffffffffffffff168373ffffffffffffffffffffffffffffffffffffffff1614156118db576040517f08c379a00000000000000000000000000000000000000000000000000000000081526004016118d29061205a565b60405180910390fd5b61192d82600560008773ffffffffffffffffffffffffffffffffffffffff1673ffffffffffffffffffffffffffffffffffffffff1681526020019081526020016000205461177390919063ffffffff16565b600560008673ffffffffffffffffffffffffffffffffffffffff1673ffffffffffffffffffffffffffffffffffffffff168152602001908152602001600020819055506119c282600560008673ffffffffffffffffffffffffffffffffffffffff1673ffffffffffffffffffffffffffffffffffffffff1681526020019081526020016000205461179a90919063ffffffff16565b600560008573ffffffffffffffffffffffffffffffffffffffff1673ffffffffffffffffffffffffffffffffffffffff168152602001908152602001600020819055508273ffffffffffffffffffffffffffffffffffffffff168473ffffffffffffffffffffffffffffffffffffffff167fbeabacc8ffedac16e9a60acdb2ca743d80c2ebb44977a93fa8e483c74d2b35a884604051611a629190611a8e565b60405180910390a3600190509392505050565b6000819050919050565b611a8881611a75565b82525050565b6000602082019050611aa36000830184611a7f565b92915050565b600080fd5b600073ffffffffffffffffffffffffffffffffffffffff82169050919050565b6000611ad982611aae565b9050919050565b611ae981611ace565b8114611af457600080fd5b50565b600081359050611b0681611ae0565b92915050565b611b1581611a75565b8114611b2057600080fd5b50565b600081359050611b3281611b0c565b92915050565b60008060408385031215611b4f57611b4e611aa9565b5b6000611b5d85828601611af7565b9250506020611b6e85828601611b23565b9150509250929050565b60008115159050919050565b611b8d81611b78565b82525050565b6000602082019050611ba86000830184611b84565b92915050565b600060208284031215611bc457611bc3611aa9565b5b6000611bd284828501611af7565b91505092915050565b6000611be682611aae565b9050919050565b611bf681611bdb565b8114611c0157600080fd5b50565b600081359050611c1381611bed565b92915050565b60008060408385031215611c3057611c2f611aa9565b5b6000611c3e85828601611c04565b9250506020611c4f85828601611b23565b9150509250929050565b611c6281611ace565b82525050565b6000602082019050611c7d6000830184611c59565b92915050565b600081519050919050565b600082825260208201905092915050565b60005b83811015611cbd578082015181840152602081019050611ca2565b83811115611ccc576000848401525b50505050565b6000601f19601f8301169050919050565b6000611cee82611c83565b611cf88185611c8e565b9350611d08818560208601611c9f565b611d1181611cd2565b840191505092915050565b60006020820190508181036000830152611d368184611ce3565b905092915050565b600080600060608486031215611d5757611d56611aa9565b5b6000611d6586828701611af7565b9350506020611d7686828701611af7565b9250506040611d8786828701611b23565b9150509250925092565b7f596f75206861766520696e70757420616e20696e76616c696420616d6f756e74600082015250565b6000611dc7602083611c8e565b9150611dd282611d91565b602082019050919050565b60006020820190508181036000830152611df681611dba565b9050919050565b7f596f7520646f206e6f7420686176652073756666696369656e742066756e6473600082015250565b6000611e33602083611c8e565b9150611e3e82611dfd565b602082019050919050565b60006020820190508181036000830152611e6281611e26565b9050919050565b7f596f7520617265206e6f7420746865206f776e65720000000000000000000000600082015250565b6000611e9f601583611c8e565b9150611eaa82611e69565b602082019050919050565b60006020820190508181036000830152611ece81611e92565b9050919050565b7f596f752063616e6e6f74206d616b6520796f757273656c66206f776e65720000600082015250565b6000611f0b601e83611c8e565b9150611f1682611ed5565b602082019050919050565b60006020820190508181036000830152611f3a81611efe565b9050919050565b7f596f752063616e6e6f7420736574206974206173206f776e6572000000000000600082015250565b6000611f77601a83611c8e565b9150611f8282611f41565b602082019050919050565b60006020820190508181036000830152611fa681611f6a565b9050919050565b7f4e487b7100000000000000000000000000000000000000000000000000000000600052602260045260246000fd5b60006002820490506001821680611ff457607f821691505b6020821081141561200857612007611fad565b5b50919050565b7f596f752063616e742073656e6420746f207a65726f206163636f756e74000000600082015250565b6000612044601d83611c8e565b915061204f8261200e565b602082019050919050565b6000602082019050818103600083015261207381612037565b9050919050565b7f596f752063616e6e6f74206275726e20656e7469726520737570706c79000000600082015250565b60006120b0601d83611c8e565b91506120bb8261207a565b602082019050919050565b600060208201905081810360008301526120df816120a3565b9050919050565b7f4e487b7100000000000000000000000000000000000000000000000000000000600052600160045260246000fd5b7f4e487b7100000000000000000000000000000000000000000000000000000000600052601160045260246000fd5b600061214f82611a75565b915061215a83611a75565b92508282101561216d5761216c612115565b5b828203905092915050565b600061218382611a75565b915061218e83611a75565b9250827fffffffffffffffffffffffffffffffffffffffffffffffffffffffffffffffff038211156121c3576121c2612115565b5b82820190509291505056fea26469706673582212203f22bcdf87d2b23eb10bf7e087716235ac667c54eb4a185ebb07544b7a67583864736f6c634300080b0033",
  "immutableReferences": {},
  "source": "pragma solidity ^0.8.11;\r\nimport \"./SafeMath.sol\";\r\ncontract MayoralToken{\r\n  //USING THE SAFEMATH LIBRARY FOR ARITHMETIC OPERATIONS\r\n    using SafeMath for uint256;\r\n\r\n    // *******VARIABLE DECLARATION***********/\r\n    uint private TotalSupply;\r\n    address private owner;\r\n    string private name;\r\n    string private symbol;\r\n    uint8 private decimal;\r\n    bool private paused;\r\n    mapping (address => uint)balanceOf;\r\n    mapping (address => mapping(address => uint))allowed;\r\n    enum Pause{isPaused,notPaused}\r\n    Pause _PAUSE;\r\n    //*******EVENT DECLARARTION********/\r\n    event transfer(address indexed _from,address indexed _to,uint _value);\r\n    event approve(address indexed _from,address indexed _to,uint _value);\r\n    event mint(address indexed _from,uint _value);\r\n    event burn(address indexed _from,uint _value);\r\n    event PAUSE(address indexed _from);\r\n    event UNPAUSE(address indexed _from);\r\n    event increasedallowance(address indexed _from,address indexed _to, uint _value);\r\n    event decreasedallowance(address indexed _from,address indexed _to, uint _value);\r\n    event withdraw(address indexed _to,uint _value);\r\n    event renounceownership(address indexed _to);\r\n    event changeownership(address indexed _from,address indexed _to);\r\n\r\n    //**********CONSTRUCTOR TO DECLARE VALUES  */\r\n\r\n    constructor(string memory _name,string memory _symbol,uint8 _decimal){\r\n      name = _name;\r\n      symbol = _symbol;\r\n      decimal = _decimal;\r\n      owner = tx.origin;\r\n      balanceOf[owner] = TotalSupply;\r\n      _PAUSE = Pause.notPaused;\r\n\r\n    }\r\n \r\n//***********MODIFIER TO ASSIGN ADDRESS OWNER AS OWNER FOR ACCESS CONTROL */\r\n    modifier OnlyOwner(){\r\n        require(msg.sender == owner,\"You are not the owner\");\r\n        _;\r\n    }\r\n\r\n    //******FUNCTION TO PAUSE CONTRACT INCASE OF ISSUES */\r\n    function PauseContract()internal OnlyOwner returns(bool success){\r\n      require(!paused,\"Contract already paused\");\r\n        paused = true;\r\n        _PAUSE = Pause.isPaused;\r\n        emit PAUSE(msg.sender);\r\n        return true;\r\n\r\n    }\r\n\r\n    //**********FUNCTION TO UNPAUSE CONTRACT */\r\n    function UnpauseContract ()internal OnlyOwner returns(bool success){\r\n      require(paused = true,\"Contract is already unpaused\");\r\n        paused = false;\r\n        _PAUSE = Pause.notPaused;\r\n        emit UNPAUSE(msg.sender);\r\n        return true;\r\n    }\r\n\r\n    //****FUNCTION TO SHOW OWNER ADDRESS */\r\n\r\n    function ShowOwner()public view returns(address){\r\n      return owner;\r\n    }\r\n\r\n    //*******FUNCTION TO SHOW TOKEN NAME */\r\n\r\n    function ReturnName()public view returns(string memory){\r\n      return name;\r\n    }\r\n\r\n    //**********FUNCTION TO SHOW TOKEN SYMBOL */\r\n\r\n    function ReturnSymbol()public view returns (string memory){\r\n      return symbol;\r\n    }\r\n\r\n    //**********FUNCTION TO SHOW DECIMAL */\r\n\r\n    function ReturnDecimal()public view returns (uint){\r\n      return decimal;\r\n    }\r\n    \r\n    //**********FUNCTION TO SHOW TOKEN SUPPLY */\r\n    function ShowTotalSupply()public view returns (uint){\r\n        return TotalSupply;\r\n    }\r\n\r\n    //**********FUNCTION TO SET ALLOWANCE */\r\n    function SetAllowance(address _recieve,uint _value)external returns(bool success){\r\n      require(paused != true);\r\n      require(balanceOf[msg.sender] >= _value,\"You do not have sufficient funds\");\r\n      require(_recieve != address(0));\r\n        allowed[msg.sender][_recieve] = _value;\r\n        emit approve(msg.sender,_recieve,_value);\r\n        return true;\r\n    }\r\n\r\n    //**********FUNCTION TO INCREASE ALLOWANCE */\r\n\r\n    function IncreaseAllowance(address _recieve,uint _value) external returns (bool success){\r\n      require(paused != true);\r\n      require(_recieve != address(0));\r\n      require(balanceOf[msg.sender] > _value,\"You do not have sufficient funds\");\r\n      allowed[msg.sender][_recieve] = allowed[msg.sender][_recieve].add(_value);\r\n      emit increasedallowance(msg.sender, _recieve, _value);\r\n      return true;\r\n    }\r\n    \r\n     //**********FUNCTION TO DECREASE ALLOWANCE */\r\n  \r\n\r\n    function DecreaseAllowance(address _recieve,uint _value)external returns (bool success){\r\n      require(paused != true);\r\n      require(_recieve != address(0));\r\n      allowed[msg.sender][_recieve] = allowed[msg.sender][_recieve].sub(_value);\r\n       emit decreasedallowance(msg.sender, _recieve, _value);\r\n      return true;\r\n    }\r\n\r\n     //**********FUNCTION TO SEND TOKENS */\r\n\r\n    function Transfer(address _from,address _to,uint _value)internal returns(bool success){\r\n      require(paused != true);\r\n        require(balanceOf[_from] >= _value,\"You do not have sufficient funds\");\r\n        require(_to != address(0),\"You cant send to zero account\");\r\n        balanceOf[_from] = balanceOf[_from].sub(_value);\r\n        balanceOf[_to] = balanceOf[_to].add( _value);\r\n        emit transfer(_from, _to,_value);\r\n        return true;\r\n    }\r\n    function _Transfer(address _to,uint _value)external returns(bool success){\r\n      Transfer(msg.sender, _to, _value);\r\n      return true;\r\n    }\r\n    function TransferFrom(address _from,address _to,uint _value)external returns(bool success){\r\n      require(paused != true);\r\n        require(balanceOf[_from] >= _value,\"You do not have sufficient funds\");\r\n        require(_to != address(0),\"You cant send to zero account\");\r\n        balanceOf[_from] = balanceOf[_from].sub(_value);\r\n        balanceOf[_to] = balanceOf[_to].add( _value);\r\n        emit transfer(_from, _to,_value);\r\n        return true;\r\n    }\r\n\r\n     //**********FUNCTION TO CHECK BALANCE OF HOLDERS */\r\n\r\n    function CheckBalance(address _who)external view returns(uint){\r\n        return balanceOf[_who];\r\n    }\r\n\r\n     //**********FUNCTION TO MINT MORE TOKENS */\r\n\r\n    function Mint(address _from,uint _value)public returns(bool success){\r\n      require(paused != true);\r\n      require(_from != address(0));\r\n        require(_value != 0,\"You have input an invalid amount\");\r\n        TotalSupply = TotalSupply.add(_value);\r\n        balanceOf[_from] = balanceOf[_from].add(_value);\r\n        emit mint(_from, _value);\r\n        return true;\r\n    }\r\n\r\n     //**********FUNCTION TO BURN TOKENS */\r\n\r\n    function Burn(address _from,uint _value)public returns(bool success){\r\n      require(paused != true);\r\n      require(_from != address(0));\r\n      require(_value != 0,\"You have input an invalid amount\");\r\n      require(_value <= TotalSupply,\"You cannot burn entire supply\");\r\n      balanceOf[_from] = balanceOf[_from].sub(_value);\r\n      emit burn(_from, _value);\r\n      return true;\r\n    }\r\n\r\n    //******WITHDRAW FUNCTION INCASE OF ACCIDENTAL ETHER TRANSFER */\r\n    function Withdraw(address payable _to,uint _value)external OnlyOwner returns (bool success){\r\n      require(_value <= address(this).balance);\r\n      _to.transfer(_value);\r\n      emit withdraw(_to,_value);\r\n      return true;\r\n      \r\n    }\r\n\r\n    //***********RENOUNCE OWNERSHIP */\r\n    function Renounce(address _to)external OnlyOwner returns(bool success){\r\n      require(_to != address(0),\"You cannot set it as owner\");\r\n      owner = _to;\r\n      emit renounceownership(_to);\r\n      return true;\r\n\r\n    }\r\n    function ChangeOwnership(address _to)external OnlyOwner returns(bool success){\r\n      require(_to != msg.sender,\"You cannot make yourself owner\");\r\n      require(_to != address(0),\"You cannot set it as owner\");\r\n      owner = _to;\r\n      emit changeownership(msg.sender, _to);\r\n      return true;\r\n\r\n    }\r\n\r\n    //*******CHECK ALLOWANCE */\r\n    function CheckAllowance(address _to)external  view returns(uint){\r\n      return allowed[owner][_to];\r\n    }\r\n}   ",
  "sourcePath": "C:\\Users\\MAYOWA\\Desktop\\BikeSharing\\contracts\\MayoralToken.sol",
  "compiler": {
    "name": "solc",
    "version": "0.8.11+commit.d7f03943.Emscripten.clang"
  },
  "schemaVersion": "3.4.5",
  "updatedAt": "2022-07-09T09:56:27.742Z",
  "devdoc": {
    "kind": "dev",
    "methods": {},
    "version": 1
  },
  "userdoc": {
    "kind": "user",
    "methods": {},
    "version": 1
  }
}